:1000D5003F065B4F666D7D077F6F777C395E797173
:0300EE0001080006
:0800E5007F337E86DEFEDFFAA8
:0100ED0022F0
:10008F00D2A77580FEC2A720B0101200E50508E5C3
:10009F0008B40A03E4F50830B0FDD2A6E5089000D5
:1000AF00D593F580C2A620B10F1200E5E508D394D1
:1000BF00004002150830B1FDD2A6E5089000D59397
:0600CF00F580C2A680C10D
:03000000020003F8
:0C000300787FE4F6D8FD75810802004A01
:10000F0002008FE493A3F8E493A34003F68001F278
:10001F0008DFF48029E493A3F85407240CC8C333F2
:10002F00C4540F4420C8834004F456800146F6DFC1
:10003F00E4800B01020408102040809000EEE47E63
:10004F00019360BCA3FF543F30E509541FFEE493B6
:10005F00A360010ECF54C025E060A840B8E493A37D
:10006F00FAE493A3F8E493A3C8C582C8CAC583CAA8
:10007F00F0A3C8C582C8CAC583CADFE9DEE780BE60
:0100F100000E
:00000001FF
