:100148003F065B4F666D7D077F6F777C395E7971FF
:060158007638373E40003E
:0301670001081478
:08015E007F337E86DEFEDFFA2E
:010166002276
:1000030075B0F0E5B064F070030200A312015EE581
:10001300B064F06052AFB0EF2490601B24C0601254
:1000230024E0600924F07012E4F509800D750901DC
:100033008008750902800375090375B00FAFB0EF2F
:1000430024F9601824FC601024FE600814701385E2
:100053000909800E7404800674088002740C250953
:10006300F509E5B0B40FFB75B0FFE5B0F4603112EC
:10007300015EE5B0F46029AFB0EF2409601A24FCF7
:10008300601124FE6008147012750910800D750943
:100093001180087509128003750913E5B0B4FFFBDD
:0100A300223A
:10013000D2A77580FEC2A7120003D2A6E5099001DE
:080140004893F580C2A680EF90
:030000000200A457
:0C00A400787FE4F6D8FD7581090200EBBE
:1000B000020130E493A3F8E493A34003F68001F235
:1000C00008DFF48029E493A3F85407240CC8C33351
:1000D000C4540F4420C8834004F456800146F6DF20
:1000E000E4800B0102040810204080900167E47E48
:1000F000019360BCA3FF543F30E509541FFEE49315
:10010000A360010ECF54C025E060A840B8E493A3DB
:10011000FAE493A3F8E493A3C8C582C8CAC583CA06
:10012000F0A3C8C582C8CAC583CADFE9DEE780BEBE
:01016A000094
:00000001FF
