:1000710058AD95A005B510FFFE74AEDAAA06DEBE36
:10005400C2B5C2B6E4FEEF30E004D2B48002C2B44A
:0C006400D2B5EFC313FFC2B50EBE08EA10
:01007000226D
:10000300E4FDE4FBFA7C80E4F9ED75F008A42471C7
:10001300F582E43400F583E58229F582E43583F53E
:1000230083E493FF120054AF04120054D2B6C2B655
:100033007801AF04EF08800103D8FDFC09B908C9B2
:100043000BBB00010ABA03BDBBE8BA0DBD02B38006
:01005300AFFD
:030000000200817A
:0C008100787FE4F6D8FD758107020003CB
:00000001FF
