:100266003F065B4F666D7D077F6F777C395E7971E0
:0B027600408000FEFDFBF7EFDFBF7FC4
:0C024300E493F580D2A7C2A77F037E00E1
:10024F007D737C00ED1D70011C144C70F7EF1F7057
:06025F00011E144E70EABE
:010265002276
:100003008C0C8D0DA907C2A6E975F00A84900266CF
:1000130093F580D2A6C2A6C2A7900279120243C268
:10002300A6E975F00A84E5F0900266934480F580B2
:10003300D2A6C2A6C2A790027A120243C2A6AE0CEF
:10004300AF0D7C007D0A1200E974662FF5827402FD
:100053003EF583E493F580D2A6C2A6C2A790027BA5
:10006300120243C2A6AE0CAF0D7C007D0A1200E95A
:1000730074662DF58274023CF583E4934480F58025
:10008300D2A6C2A6C2A790027C120243C2A67C00DB
:100093007D0AAF03AE021200E974662FF582740283
:1000A3003EF583E493F580D2A6C2A6C2A790027D53
:1000B300120243C2A6AE02AF037C007D0A1200E91E
:1000C30074662DF58274023CF583E493F580D2A621
:1000D300C2A6C2A790027EE493F580D2A7C2A77FEF
:0600E300037E0002024F43
:10021800C292C290D292E4FEC290EF139291D29011
:10022800EFC313FF0EBE08F0E4FEC290ED139291E7
:0A023800D290EDC313FD0EBE08F0D6
:010242002299
:1001E900C292C290D292E4FDC290EF139291D29042
:1001F900EFC313FF0DBD08F0E4FDC290EEC313FE7B
:0E020900309103430680D2900DBD08EEAF0683
:0102170022C4
:10028100EF75F00A84FEEF75F00A84AFF0EEC45406
:03029100F02FFF4C
:010294002247
:030295001201E96A
:10029800EFC4540FFEEF540FFFEE75F00AA42FFFC2
:0102A8002233
:10017400E4FD7F8E1202187F1E120281AD077F807C
:100184001202187F11120281AD077F821202187FBA
:1001940010120281AD077F841202187D807F8E12B7
:1001A4000218E4FD7F8E1202187F811202958F09D6
:1001B4007F831202958F0A7F851201E91202988FBC
:1001C4000B7D807F8E120218E4F508E50AFD7C00A1
:1001D400E509FB7A00AF0B1200030508E508C39498
:0501E4003240E880BD7F
:030000000202A950
:0C02A900787FE4F6D8FD75810D02017429
:1000E900C2D5EC30E709B2D5E4C39DFDE49CFCEE32
:1000F90030E715B2D5E4C39FFFE49EFE12011FC38A
:10010900E49DFDE49CFC800312011F30D507C3E484
:060119009FFFE49EFE22A0
:10011F00BC000BBE0029EF8DF084FFADF022E4CCC4
:10012F00F875F008EF2FFFEE33FEEC33FCEE9DEC8D
:10013F00984005FCEE9DFE0FD5F0E9E4CEFD22EDD3
:10014F00F8F5F0EE8420D21CFEADF075F008EF2F1D
:10015F00FFED33FD4007985006D5F0F222C398FD0E
:05016F000FD5F0EA22AB
:00000001FF
