:1000D400B4F3BCD2BAC3A3A1BBB6D3ADD1A7CFB03E
:1000E400B5A5C6ACBBFA003F065B4F666D7D077FC6
:0400F4006FFEFDFBA3
:10011700D3EF9400EE940040147D727C00ED1D70C7
:0D012700011CED4C70F7EF1F70E61E80E329
:0101340022A8
:10000E007580FFD2A7E5089000F593F580C2A7E5AD
:10001E000814600F14601B24027028D2A6EF75F02E
:10002E0064800CD2A6EF75F06484E5F075F00A8456
:10003E008009D2A6EF75F00A84E5F09000EB93F5F7
:0D004E0080C2A60508E508B40303E4F50828
:01005B002282
:10016400D2AFD2A9D28C438901758CED758AFF2256
:10014E00D2AFD2ACC29FD29ED29CD28E43892075A2
:06015E008DFD758BFD22F2
:1000F80012016412014ED2997BFF7A0079D4120062
:0F0108005C3099FDC2997FE87E0312011780E7F2
:03000B000200866A
:10008600C0E0C0F0C083C082C0D075D000C0077584
:100096008CED758AFFAF0B12000ED007D0D0D08240
:0700A600D083D0F0D0E0325E
:0300000002017486
:0C017400787FE4F6D8FD75810B0200F8DE
:10005C00120135601CFF09E970010AC0E0EAC0E03A
:10006C00EBC0E01200ADD0E0FBD0E0FAD0E0F980BC
:0A007C00DF7F0A1200ADE4FEFF2250
:10013500BB010689828A83E0225002E722BBFE02C8
:09014500E32289828A83E49322FB
:1000AD00EFB40A07740D1200B8740A309811A899AC
:1000BD00B8130CC2983098FDA899C298B811F630B3
:0700CD0099FDC299F599228B
:00000001FF
