:0A00B5003F065B4F666D7D077F6F0D
:09005E0093F580C2A67F057E0027
:10006700D3EF9400EE940040147D727C00ED1D7078
:0D007700011CED4C70F7EF1F70E61E80E3DA
:010084002259
:10000300EF75F06484FEEF75F06484E5F075F00A33
:1000130084FBEF75F00A84AAF07580FFD2A7758080
:10002300FEC2A7D2A6AF06EF9000B512005E7580A0
:10003300FFD2A77580FDC2A7D2A6AF03EF12005E61
:100043007580FFD2A77580FBC2A7D2A6AF02EF933C
:0B005300F580C2A67F057E000200675A
:0B00AA00D28C438905E4F58CF58A2216
:0C009200D28E438910758D4B758BFD22BA
:0D0085001200AA120092AF8A12000380F947
:0300000002009E5D
:0C009E00787FE4F6D8FD7581090200852A
:00000001FF
