:0D01AF003F065B4F666D7D077F6FFEFDFB19
:10011200D3EF9400EE940040147D727C00ED1D70CC
:0D012200011CED4C70F7EF1F70E61E80E32E
:01012F0022AD
:10000E007580FFD2A7E5089001B993F580C2A7E5E8
:10001E000814600F14601B24027028D2A6EF75F02E
:10002E0064800CD2A6EF75F06484E5F075F00A8456
:10003E008009D2A6EF75F00A84E5F09001AF93F532
:0D004E0080C2A60508E508B40303E4F50828
:01005B002282
:10019100D2AFD2A9D28C438901758CED758AFF2229
:020003000022D9
:0C01BC00D2A1D2A0120003C2A0020003D6
:0E01A100C2A1C2A0D2A1120003D2A00200038C
:08014D001201BC7FA012013079
:10015500C2A1D2A112000330A004C2A1D322C2A120
:02016500C322B3
:10016700C2A1300104D2A08002C2A0D2A112000312
:05017700C2A1D2A0228C
:10013000E4FEC2A1EF30E704D2A08002C2A0D2A1A7
:0C014000EF25E0FF0EBE08EAC2A1D2A02D
:01014C002290
:10009000AB0712014D5004D2008002C200AF031220
:1000A00001301201555004D2008002C200AF051287
:1000B00001301201555004D2008002C2000201A199
:10017C00E4FEEF25E0FFC2A1D2A130A003430701AA
:04018C000EBE08EEAD
:01019000224C
:02005C00AD07EE
:10005E0012014D5004D2008002C200AF05120130D1
:10006E001201551201BC7FA112013012015550042C
:10007E00D2008002C20012017CD20112016712016D
:01008E00A1D0
:01008F00224E
:1000C000120191C2AF7DBC7C007F031200907F0AB9
:1000D0007E001201127F0312005C8F09300005E4DC
:0B00E000F59080037590FFD2AF80FE0A
:03000B000200EB05
:1000EB00C0E0C0F0C083C082C0D075D000C007751F
:1000FB008CED758AFFAF0912000ED007D0D0D082DD
:07010B00D083D0F0D0E032F8
:030000000201C832
:0C01C800787FE4F6D8FD7581200200C0AD
:00000001FF
